:020000040800F2
:10000000C80A01209D010008AD230008A7010008CF
:10001000A9010008AB010008AD01000800000000C4
:10002000000000000000000000000000AF01000818
:10003000B101000800000000B30100080D2900080C
:10004000B7010008B7010008B7010008B7010008B0
:10005000B701000881260008B7010008B7010008B1
:10006000B7010008B7010008B7010008B701000890
:10007000B7010008B7010008B701000875140008AF
:10008000B7010008A9140008B7010008B70100086B
:10009000150E0008B7010008B7010008B7010008F5
:1000A000B7010008B7010008B7010008B701000850
:1000B000AD2A0008B7010008FD2A0008B7010008B2
:1000C000B7010008B7010008B7010008B701000830
:1000D000B7010008B7010008B7010008B701000820
:1000E000B7010008B7010008B7010008B701000810
:1000F000B7010008B7010008852B0008B701000808
:10010000B7010008B7010008412B0008B70100083B
:10011000B701000801320008B7010008B701000864
:10012000B7010008B7010008B7010008B7010008CF
:10013000B7010008B7010008B7010008B7010008BF
:10014000B7010008B7010008B7010008B7010008AF
:10015000B7010008B7010008DD140008B701000866
:10016000B7010008B7010008B7010008B70100088F
:10017000B7010008B7010008B7010008B70100087F
:10018000B7010008B7010008DFF80CD000F046FD09
:1001900000480047C54E0108C80A012006488047AC
:1001A00006480047FEE7FEE7FEE7FEE7FEE7FEE75C
:1001B000FEE7FEE7FEE7FEE72129000889010008C7
:1001C000DFED300AB5EEC00A60EE200ABDEEE01A9F
:1001D00011EE100AF1EE10FA38BF401E00EE100AC0
:1001E0009FED291AB8EEC00A70EEC00A20EE810A0F
:1001F000BCEEC00A10EE100A00EE100A0028B8EE9D
:10020000C00A10EE810AB8BF002004DBB0F5807F81
:10021000C8BF4FF480701D4960EE000AB6EE001AA8
:10022000DFED1C2A9FED1A2A60EE011A60EE225AB9
:1002300020EE813A20EE022A21EEA01A01EB800086
:1002400073EE655A62EE202AB7EE006A33EE003A8A
:10025000D0EC043A76EE611A71EE600A35EEE20AED
:1002600033EE413A32EEC21A70EEA10A20EE230AB2
:1002700064EE831A04EE200A45EE011A31EE800A7C
:100280007047000083F9223E000080431882020874
:10029000ABAA2A3EABAAAA3EDFED300AB5EEC00AF1
:1002A00060EE200ABDEEE01A11EE100AF1EE10FA2F
:1002B00038BF401E00EE100A9FED291AB8EEC00AA2
:1002C00070EEC00A20EE810ABCEEC00A10EE100AE1
:1002D00000EE100A0028B8EEC00A10EE810AB8BF7E
:1002E000002004DBB0F5807FC8BF4FF480701D494B
:1002F00060EE000AB6EE001ADFED1C2A9FED1A2A06
:1003000060EE011A60EE225A20EE813A20EE022AB7
:1003100021EEA01A01EB800073EE655A62EE202AEE
:10032000B7EE006A33EE003AD0EC043A76EE611A8A
:1003300071EE600A35EEE20A33EE413A32EEC21A4D
:1003400070EEA10A20EE230A64EE831A04EE200A5E
:1003500045EE011A31EE800A7047000083F9223E13
:100360000000804328860208ABAA2A3EABAAAA3E18
:10037000D0ED060A90ED070A002930EE801A90EDC4
:10038000080A31EE001A80ED001AB0EE001A50EEA5
:10039000410AC0ED010A80ED020A08BF7047002142
:1003A000C1600161416170470021C160016141612B
:1003B00070472DE9F05F0546002092469B4688462F
:1003C0000646814640241BE02846414647462246D1
:1003D00000F005FB53465A46C01A914110D311460E
:1003E0001846224600F0ECFA2D1A67EB01084F463A
:1003F00022460120002100F0E3FA17EB00094E41EC
:10040000201EA4F10104DFDC484631462A4643465B
:10041000BDE8F09F2DE9F0410024061B254671F14F
:10042000000605DA01240027D0EB070067EB010185
:10043000161E73F1000605DA0027D2EB070201252C
:1004400067EB0303FFF7B5FF86460E4617469C464B
:10045000AC4204D00025D0EB050E65EB010624B1BB
:100460000020D2EB000760EB030C704631463A46A1
:100470006346BDE8F08140EA01039B0703D009E031
:1004800008C9121F08C0042AFAD203E011F8013B80
:1004900000F8013B521EF9D27047D2B201E000F8D9
:1004A000012B491EFBD270470022F6E710B5134618
:1004B0000A4604461946FFF7F0FF204610BD421CCD
:1004C00010F8011B0029FBD1801A704710B50022DB
:1004D00000E0521C835C8C5CA34201D1002BF8D15C
:1004E000D8B2E1B2401A10BD30B504460020034630
:1004F00000E05B1C934203D2E05CCD5C401BF8D073
:1005000030BD10B54843044614F0E2FC002805D085
:100510000021002C02D0641E0155FAE710BD2DE920
:10052000FE4F804681EA0300C00F0C46009021F088
:10053000004123F00045B8EB0200A94105D2404636
:10054000214690461C460B46024623F000401043CD
:1005500047D0270DC7F30A00C3F30A510290401A8F
:10056000019040286BDAC3F3130040F4801B00981D
:10057000924620B10023D2EB030A63EB0B0B0198E8
:100580005946C0F14002504600F01AFA06460D46A0
:1005900050465946019A00F032FA10EB08006141CA
:1005A000002487EA115284EAE7731A4340D0009A84
:1005B00062B3019A012A4FEA075215DC001B61EB76
:1005C00002014FF0004202EA0752CDE90042001C4E
:1005D00041F5801132462B4600F069FA03B0BDE8C0
:1005E000F08F40462146F9E7001B61EB0201001C39
:1005F00041F5801300185B412018A2F5001747EB66
:10060000030140EAD570B6196D4111E06D084FEA5B
:10061000360645EAC0754FEA0752001B61EB02013E
:10062000001C41F5801149084FEA30000019514182
:1006300032462B4603B0BDE8F04F00F029BA0098CF
:10064000012240000023D0EB020263EBE07300982C
:1006500021464FEAE074B8EB000061EB0401E9E7E2
:1006600083F000435BE781F0004158E72DE9FE4F3E
:1006700081EA030404F0004421F0004100944FF0AB
:10068000000B23F0004350EA01045ED052EA030459
:100690005BD0C3F30A54C1F30A552C44A4F2F334DB
:1006A0000194A0FB0254C1F3130141F48011C3F380
:1006B000130343F4801301FB024400FB034E840A3E
:1006C000970A44EA815447EA8357A4FB07680295D6
:1006D0008D0A05FB07854FEA932C04FB0C54270574
:1006E000029D4FEA065847EA1637B5EB08056EEB50
:1006F000070C870E920E47EA811742EA8312A7FB86
:100700000201B6EB0B0164EB00042B0D43EA0C3342
:100710005E1844EB1C50DA465146E7FB0201C5F374
:1007200013044FEA0B3343EA14534FEA0432019C9B
:1007300043EA0603A4F10C040294009CCDE900B442
:1007400000F0B5F903B0BDE8F08F00200146F9E7ED
:100750002DE9F04D81EA030404F0004B21F000453F
:1007600014464FF0000A23F0004150EA050220D061
:1007700054EA01021DD0C5F30A570246C5F313031C
:10078000C1F31300C1F30A5640F4801543F48013FB
:10079000A7EB0608101BD64608F2FD3873EB0500E0
:1007A00002D308F1010801E092185B41B8F1000F93
:1007B00003DA00200146BDE8F08D00204FF48011DF
:1007C000064684460EE0171B73EB050705D3121B84
:1007D00063EB050306434CEA010C49084FEA30007D
:1007E00092185B4150EA0107EDD152EA030012D0A2
:1007F00082EA040083EA0501084305D0101BAB41DF
:1008000006D20122002306E000224FF0004302E05E
:100810006FF0010253101AEB06004CEB085110EB7D
:100820000A0041EB0B01BDE8F04D00F031B90EB507
:10083000C10F80EAE0700844CA07002140F2334348
:100840008DE80E000A460B4600F031F903B000BDFA
:100850000EB540F2334102910021CDE900110A4664
:100860000B4600F024F903B000BD3EB5CA17CB0F0C
:10087000002450405140C0186141DA0740F2334330
:100880000094CDE901232246234600F010F903B07D
:1008900030BD70B5C1F30A5201F000450024C1F328
:1008A000130140F2FF3341F480119A4201DA002033
:1008B00070BD40F233439A42A2F2334203DC52420B
:1008C00000F08DF800E090402C43F1D0404270BD24
:1008D000C1F30A5210B5C1F3130140F2FF3341F4E2
:1008E00080119A4201DA002010BD40F233439A424F
:1008F000A2F2334203DC524200F071F810BD904086
:1009000010BD00F0004230F000400AD0C10D01F5EA
:100910006071C0F3160042EA0151C208400711435A
:10092000704700200146704730B5041E71F1000485
:1009300004DB4FF00044404264EB0101141E73F1EC
:10094000000405DB1C464FF00043524263EB0403F6
:100950008B4208BF824230BD30B5041E71F10004E5
:1009600004DB4FF00044404264EB0101141E73F1BC
:10097000000405DB1C464FF00043524263EB0403C6
:10098000994208BF904230BD01F0004330B421F0DD
:10099000004150EA010206D00A0DA2F56072C1F3CF
:1009A0001301002A02DC30BC00207047440F44EAE7
:1009B000C104C100E01830BC00EBC25000F031B8F7
:1009C000202A04DB203A00FA02F10020704791400F
:1009D000C2F1200320FA03F3194390407047202A04
:1009E00004DB203A21FA02F00021704721FA02F3D9
:1009F000D040C2F120029140084319467047202A96
:100A000006DBCB17203A41FA02F043EAE07306E036
:100A100041FA02F3D040C2F1200291400843194646
:100A200070470029A8BF7047401C490008BF20F04C
:100A30000100704710B4B0FA80FC00FA0CF050EAE4
:100A4000010404BF10BC704749B1CCF1200421FA65
:100A500004F411FA0CF118BF012121430843A3EB60
:100A60000C01CB1D4FEA00614FEA102042BF00206D
:100A700010BC704700EBC35010440029A4BF10BC49
:100A80007047401C490008BF20F0010010BC7047AF
:100A900010B5141E73F1000408DA401C41F1000186
:100AA00092185B411A4301D120F0010010BD2DE9DD
:100AB000F04D92469B4611B1B1FA81F202E0B0FAD4
:100AC00080F220329046FFF77BFF04460F4640EA53
:100AD0000A0041EA0B0153465A46084313D0114617
:100AE00053EA010019D0C8F140025046FFF777FFE2
:100AF00005460E46504659464246FFF761FF0843F9
:100B000005D0012004E020463946BDE8F08D0020E4
:100B1000054346EAE0762C4337430A986305E40A26
:100B2000A0EB08000022FD0A44EA47540A3002D52F
:100B300000200146E9E7010510196941DDE9084592
:100B400000196941BDE8F04DA2E770B521F00043FE
:100B500003430CD0C1F30A550024D5EB040564EB24
:100B60000403D617AD1AB34102DB0020014670BD65
:100B7000201841EB025170BD2DE9F04D00231A46BB
:100B80001B1A8A4103DB00200146BDE8F08DC1F34A
:100B90000A52C1F3130141F480154FF0000BD10745
:100BA00002D100186D41521E0027044640F2FF1189
:100BB000384601EB620A3E468046024600204FF46A
:100BC0008011FFF70CFFC2197141BB1846EB010001
:100BD000B4EB030C75EB000C04D3E41A65EB0005D1
:100BE00017460E46241908F101006D41804634284D
:100BF000E3DDF91946EB0600091BA84103D24FF0CB
:100C0000FF32134601E0002213461BEB070046EBC0
:100C10000A51BDE8F04DFFF73BBF0000064C074D01
:100C200006E0E06840F0010394E8070098471034BC
:100C3000AC42F6D3FFF7ACFAA88D0208C88D0208C3
:100C400070B58C1810F8015B15F0070301D110F88E
:100C5000013B2A1106D110F8012B03E010F8016BBB
:100C600001F8016B5B1EF9D12B0705D40023521E3E
:100C70000DD401F8013BFAE710F8013BCB1A921CA6
:100C800003E013F8015B01F8015B521EF9D5A142A4
:100C9000D8D3002070BD21B1826842F00102826089
:100CA00003E0826822F00102826070470021084A56
:100CB0001168084A1140D0E900231A4383681A4397
:100CC000C3681A431143044AC2F804137047000072
:100CD00004230140E030FCFF0020014010B5012159
:100CE000080201F009FC00214FF4807001F004FCBF
:100CF00010BD0146C86C80B27047000030B5024696
:100D0000002000235068104C20400D790C6844EA04
:100D100005242043506090680C4C2040D1E90354D6
:100D20002C438D682C434D7944EA45042043906060
:100D3000D06A20F470000C7D641EE4B2234340EAC4
:100D40000350D06230BD0000FFFEFFFCFDF7FFC086
:100D5000F0B504460D4600200021092D11DDE068A4
:100D6000A5F10A0606EB4607072606FA07F18843AF
:100D7000A5F10A0606EB460603FA06F10843E06011
:100D80000CE0206905EB4507072606FA07F18843C2
:100D900005EB450603FA06F108432061072A0FDA3E
:100DA000606B561E06EB86071F2606FA07F188437E
:100DB000561E06EB860605FA06F10843606322E03C
:100DC0000D2A0FDA206BD61F06EB86071F2606FAC0
:100DD00007F18843D61F06EB860605FA06F108439D
:100DE000206310E0E06AA2F10D0606EB86071F26DD
:100DF00006FA07F18843A2F10D0606EB860605FA0E
:100E000006F10843E062F0BD816841F080418160F5
:100E10007047000010B50221154800F0CDF80128F8
:100E200024D11448006800214268114800F0E7F915
:100E3000002414E00F48006840680B30015D0D4845
:100E40000068027D0B480068007D401C094B1B6850
:100E500018750848006800698154601CC4B20548D0
:100E600000684068807AA042E4DC00BF10BD00004A
:100E700000640040C400002010B504460B488442C2
:100E800009D10121480601F017FB00214FF0007045
:100E900001F012FB08E00121880601F00DFB0021A2
:100EA0004FF0806001F008FB10BD000000640040BE
:100EB00010B50021837A012202FA03F13D4A12683B
:100EC00042F001023B4B1A603A4A1C3212688A43D4
:100ED000384B1C331A60027BCAB9364A0C3212688E
:100EE0008A43344B0C331A604288C38842EA034376
:100EF000304A4032847A42F834300288838842EAA9
:100F000003432C4A4032847A02EBC4025360027BD2
:100F1000012A19D1274A0C3212680A43254B0C3397
:100F20001A604288038842EA0343224A4032847AA4
:100F300042F83430C288838842EA03431D4A403273
:100F4000847A02EBC4025360C27A3AB9194A121D7C
:100F500012688A43174B1B1D1A6006E0154A121DC2
:100F600012680A43134B1B1D1A60028932B9114AD9
:100F7000143212688A430F4B14331A600289012A13
:100F800006D10C4A143212680A430A4B14331A6011
:100F9000427B012A06D1074A1C3212680A43054BDC
:100FA0001C331A60034A126822F00102014B1A60D6
:100FB00010BD00000066004070B504460D460026D6
:100FC00060692840002871D0B5F5807F5CD010DCC6
:100FD000082D35D006DC012D20D0022D24D0042D83
:100FE00072D127E0102D31D0202D35D0402D6BD17E
:100FF00038E0B5F5004F60D009DCB5F5007F49D089
:10100000B5F5806F4CD0B5F5006F5DD14FE0B5F50B
:10101000803F2DD0B5F5003F56D12FE0A0682D4977
:1010200000F01EFA064651E0E068032100F018FACD
:1010300006464BE0E068082100F012FA064645E05B
:10104000E068102100F00CFA06463FE02069032119
:1010500000F006FA064639E02069082100F000FA9F
:10106000064633E02069102100F0FAF906462DE02B
:101070006068082100F0F4F9064627E06068102156
:1010800000F0EEF9064621E0A069012100F0E8F940
:1010900006461BE0A069022100F0E2F9064615E0D1
:1010A000A069042100F0DCF906460FE00FE0A0691A
:1010B000702100F0D5F9064608E06068042100F0D0
:1010C000CFF9064602E0FFE7002600BF00E0002659
:1010D000304670BD010101001AB143690B43436101
:1010E00002E043698B434361704730B502460020FC
:1010F0000023146824F002041460146844F001040E
:10110000146000E05B1C546804F001041CB94FF645
:10111000FF74A342F6D1546804F001040CB9002016
:101120006CE08C79012C04D1146844F080041460C4
:1011300003E0146824F080041460CC79012C04D1FD
:10114000146844F04004146003E0146824F0400480
:1011500014600C7A012C04D1146844F0200414604B
:1011600003E0146824F0200414604C7A012C04D1AC
:10117000146844F01004146003E0146824F01004B0
:1011800014608C7A012C04D1146844F008041460B3
:1011900003E0146824F008041460CC7A012C04D114
:1011A000146844F00404146003E0146824F0040498
:1011B00014608C78A407CD7844EA05640D7944EA7C
:1011C00005444D7944EA05540D886D1E2C43D461C5
:1011D000146824F001041460002300E05B1C5468D0
:1011E00004F001041CB14FF6FF74A342F6D1546819
:1011F00004F001040CB1002000E0012030BD10B566
:1012000000F5D87303EB01131B6803F0040313729A
:10121000137A53B900F5D87303EB01131B6840F23E
:10122000FF7404EA5353136009E000F5D87303EB2D
:1012300001131B686FF0604404EAD303536000F5A8
:10124000D87303EB01131B6803F00203537200F51C
:10125000D87303EB01135B6803F00F03937200F57F
:10126000D87303EB01135B681B0AD37400F5D873C2
:1012700003EB01139B68D37200F5D87303EB0113E2
:101280009B681C0A147300F5D87303EB01139B6869
:101290001C0C547300F5D87303EB01139B681B0EF1
:1012A000937300F5D87303EB0113DB68D37300F578
:1012B000D87303EB0113DB681C0A147400F5D873B0
:1012C00003EB0113DB681C0C547400F5D87303EBBB
:1012D0000113DB681B0E937421B9C36843F020032C
:1012E000C36003E0036943F02003036110BD000005
:1012F00030B52DED068B83B00446002000900190A0
:10130000029004F0DBF9006940690568A847B0EE77
:1013100040AAF0EE60AA51EC1A0B81F0004141ECBA
:10132000190B9FED490B53EC102BFFF79FF941EC84
:10133000180BFFF7AEFA009004F0C0F9006980695D
:101340000568A847B0EE409AF0EE609A9FED3E0B1C
:1013500053EC102B51EC190BFFF788F941EC180BEB
:10136000FFF797FA019015F003FD80688569A8479B
:10137000B0EE409AF0EE609A9FED330B53EC102BD9
:1013800051EC190BFFF772F941EC180BFFF781FADA
:1013900002902F48C07890B10098B0F5617F04DDCD
:1013A0000098A0F5617020601EE02A48006810F5E2
:1013B000966F19DA009800F59660206014E02649CF
:1013C00000980968884205DD234800680099401AA2
:1013D000206009E0214900980968884204DA1F4822
:1013E00000680099401A20601B49019849688842AA
:1013F00005DD194840680199401A20600AE0154847
:10140000406816494968884204DA144840680199DE
:10141000401A2060104902988968884205DD0E480C
:1014200080680299401AA06009E00C490298896816
:10143000884204DA094880680299401AA06003B023
:10144000BDEC068B30BD0000000000000000244011
:1014500068020020B40200208000002074000020F8
:101460000246002002EA01030BB1012000E0002047
:101470007047000038B5042000909DF8000000F08F
:10148000CFFB0446E16A206A00F030F940B1E16A1E
:10149000206A00F055F801200249096881F812021B
:1014A00038BD00008401002038B5022000909DF86E
:1014B000000000F0B5FB0446E16A206A00F016F96E
:1014C00040B1E16A206A00F03BF801200249096856
:1014D00081F81B0238BD00007C01002070B5012599
:1014E000284600F09DFB0446E16A206A00F0FEF801
:1014F00040B1E16A206A00F023F80120024909683E
:1015000081F81B0270BD0000D00000200246094B8C
:101510009A4201D2084801E00648103801F0005311
:101520001BB1064B0B40C36002E0044B0B408360D1
:101530007047000010640240006002407D0F7D0F84
:101540000246094B9A4201D2084801E00648103889
:1015500001F000531BB1064B0B40C36002E0044B8B
:101560000B4083607047000010640240006002403E
:101570007D0F7D0F21B1026842F00102026003E09D
:10158000026822F00102026070470000016821F049
:10159000010101600021016041608160C160016161
:1015A000212141614A49884204D13D21484A103AEB
:1015B00091608CE046491831884205D14FF474613E
:1015C000434A103A916082E041493031884205D166
:1015D0004FF474113E4A103A916078E03C4948312A
:1015E000884205D14FF07461394A103A91606EE03B
:1015F00037496031884204D13649354A103AD160C2
:1016000065E033497831884204D13349304A103A91
:10161000D1605CE02E499031884204D12F492C4A98
:10162000103AD16053E02A49A831884205D14FF0E1
:101630003D51274A103AD16049E02949884204D1F6
:101640003D21274A083A116041E025491831884276
:1016500005D14FF47461224A083A116037E02049FD
:101660003031884205D14FF474111D4A083A116097
:101670002DE01B494831884205D14FF07461184A6A
:10168000083A116023E016496031884204D11149BB
:10169000134A121F11601AE011497831884204D1AF
:1016A0000D490F4A121F116011E00D499031884217
:1016B00004D10A490A4A121F116008E00849A831FA
:1016C000884204D14FF03D51054A121F1160704706
:1016D000106002403D000020400F002000003D202F
:1016E000106402400146486880B2704770B50246F7
:1016F000002000240025124EB24201D2114B01E01D
:101700000F4B103B104E0E4036B11E2606EAD12478
:10171000166806EA040502E0566906F0800501F045
:1017200000560EB15C6800E01C68084E344004EAC4
:10173000010616B10DB1012000E0002070BD0000CF
:1017400010640240006002403C0F3C0F7D0F7D0F93
:1017500010B501F080034BB122B1436943F080031F
:10176000436103E0436923F08003436180290BD088
:101770002AB1036801F01E042343036004E00368F8
:1017800001F01E04A343036010BD000010B5002249
:101790000268134B1A40CC680B6823434C692343FF
:1017A0008C692343CC6923430C6A23434C6A23434B
:1017B0008C6A23434C6B23438C6B23431A43026094
:1017C000426922F00702D1E90B3423431A434261F4
:1017D0000B6943604B6883608B68C36010BD000079
:1017E0003F801CF001490860704700000C3C02403B
:1017F00070B504460A460026092502B909E0012A07
:1018000001D1160205E0022A01D1160201E04FF4CF
:10181000407600F09FF80546092D28D1154800684C
:1018200020F440701349086008460068304308609F
:101830000846006820F0F80008600846006844F098
:10184000020108430B4908600846006840F48030F4
:10185000086000F07FF805460648006820F00200A6
:10186000044908600846006820F0F800086028462F
:1018700070BD0000103C024009201349096801F4C2
:101880008031B1F5803F01D101201CE00E4909688B
:1018900001F0100109B1062015E00B49096801F4B7
:1018A000807109B102200EE00749096801F0EF01DB
:1018B00009B1072007E00449096801F0020109B1F4
:1018C000082000E0092070470C3C024003480068F3
:1018D00040F000400149086070470000103C0240A1
:1018E00030B502460C46092500F034F80546092DAE
:1018F00019D10E48006820F440700C490860084671
:10190000006840F4007008600846006840F001007C
:101910000860146000F01EF805460448006820F0D6
:10192000010002490860284630BD0000103C02401A
:101930000548006800F0004028B1044802490C390D
:101940000860034808607047103C02402301674567
:10195000AB89EFCD08B509200090FFF78DFF00900F
:1019600002E0FFF789FF00909DF800000128F8D001
:101970009DF8000008BD000010B5044641488442AF
:1019800008D10121084600F077FD0021012000F078
:1019900073FD76E03C48844208D10121022000F02A
:1019A0006BFD0021022000F067FD6AE037488442A9
:1019B00008D10121042000F05FFD0021042000F087
:1019C0005BFD5EE03248844208D10121082000F02E
:1019D00053FD0021082000F04FFD52E02D488442C5
:1019E00008D10121102000F047FD0021102000F057
:1019F00043FD46E02848844208D10121202000F020
:101A00003BFD0021202000F037FD3AE023488442CE
:101A100008D10121402000F02FFD0021402000F0DE
:101A20002BFD2EE01E48844208D10121802000F0C9
:101A300023FD0021802000F01FFD22E01948844290
:101A400008D10121801500F017FD0021A01500F03C
:101A500013FD16E01448844208D10121401500F01E
:101A60000BFD0021601500F007FD0AE00F488442DD
:101A700007D10121001500F0FFFC0021201500F026
:101A8000FBFC10BD000002400004024000080240C0
:101A9000000C0240001002400014024000180240F6
:101AA000001C0240002002400024024000280240A6
:101AB000F0B50A4600210023002400BF3DE00125C7
:101AC00005FA01F3156805EA03049C4234D1056860
:101AD0004F000326BE40B543056015794E00B54062
:101AE0000668354305601579012D02D01579022D60
:101AF00016D185684F000326BE40B54385605579F1
:101B00004E00B540866835438560456801268E40A5
:101B1000B5434560456896798E40B6B23543456019
:101B2000C5684F000326BE40B543C560D5794E0059
:101B3000B540C6683543C560491C1029BFD3F0BD08
:101B4000F0B5002300244D07ED0E02FA05F3CE1088
:101B500000F1200555F826504E07F70E0F26BE401F
:101B6000B543CF1000F1200646F82750CE1000F103
:101B7000200555F8265045EA0304CE1000F1200553
:101B800045F82640F0BD0246002013690B400BB11A
:101B9000012000E0002070474183704701837047B7
:101BA000014601EBC100024A02EB800070470000D1
:101BB000FC350208014601EB4100024A02EBC0007D
:101BC00070470000C4340208014601EB8100014A5D
:101BD00010447047D82C0208004870476836020845
:101BE0000146C1EBC100024A02EB800070470000D1
:101BF00054310208014601EB4100024A02EBC000E9
:101C0000704700004C340208014601EB410000EB34
:101C1000C100024A02EB800070470000B8310208A0
:101C20000146C1EB0110024A02EB80007047000040
:101C3000B02F02083FB595B004461C9D00200C90C3
:101C40000D900E9009900A900B90069007900890C6
:101C500003900490059000900190029014B9401EEA
:101C600019B030BDCA4A07CA12AB07C3C94A07CA6E
:101C70000FAB07C3C848C078012804D14FF4617086
:101C80000F90C648129016991298401A0C90179906
:101C90001398401A0D9018991498401A0E9016999E
:101CA0000F98401A099017991098401A0A9018999D
:101CB0001198401A0B90BA490C980968884201DDC6
:101CC0000C9801E0B64800680690B5490D9849683F
:101CD000884201DD0D9801E0B14840680790B049A5
:101CE0000E988968884201DD0E9801E0AC48806852
:101CF0000890AC4909980968884201DA099801E01E
:101D0000A84800680390A7490A984968884201DA00
:101D10000A9801E0A34840680490A2490B9889689A
:101D2000884201DA0B9801E09E4880680590D4ED66
:101D3000000A9DED160AB8EEC00A30EEC00A8DED1D
:101D4000000AD4ED010A9DED170AB8EEC00A30EE84
:101D5000C00A8DED010AD4ED020A9DED180AB8EE15
:101D6000C00A30EEC00A8DED020ADDED000A9DEDDD
:101D7000030AB8EEC00AF4EEC00AF1EE10FA02D27D
:101D80009DED000A03E09DED030AB8EEC00A8DED5B
:101D9000000ADDED000A9DED060AB8EEC00AF4EE79
:101DA000C00AF1EE10FA02DD9DED000A03E09DEDA0
:101DB000060AB8EEC00A8DED000ADDED010A9DEDC0
:101DC000040AB8EEC00AF4EEC00AF1EE10FA02D22C
:101DD0009DED010A03E09DED040AB8EEC00A8DED09
:101DE000010ADDED010A9DED070AB8EEC00AF4EE26
:101DF000C00AF1EE10FA02DD9DED010A03E09DED4F
:101E0000070AB8EEC00A8DED010ADDED020A9DED6C
:101E1000050AB8EEC00AF4EEC00AF1EE10FA02D2DA
:101E20009DED020A03E09DED050AB8EEC00A8DEDB6
:101E3000020ADDED020A9DED080AB8EEC00AF4EED2
:101E4000C00AF1EE10FA02DD9DED020A03E09DEDFD
:101E5000080AB8EEC00A8DED020ADDED000A9DED1C
:101E6000160AB8EEC00A30EE800A84ED000ADDEDF5
:101E7000010A9DED170AB8EEC00A30EE800A84ED23
:101E8000010ADDED020A9DED180AB8EEC00A30EE37
:101E9000800A84ED020A002D78D043480068414949
:101EA000096888420BDDDDED000A3E4890ED000A2E
:101EB000B8EEC00AF4EEC00AF1EE10FA11DC3A48AE
:101EC00000683749096888420DDADDED000A3448B8
:101ED00090ED000AB8EEC00AF4EEC00AF1EE10FA76
:101EE00001D2012000E0002028702F4840682D49D1
:101EF000496888420BDDDDED010A2A4890ED010AB0
:101F0000B8EEC00AF4EEC00AF1EE10FA11DC264871
:101F100040682349496888420DDADDED010A20480E
:101F200090ED010AB8EEC00AF4EEC00AF1EE10FA24
:101F300001D2012000E0002068701B488068194928
:101F4000896888420BDDDDED020A164890ED020A31
:101F5000B8EEC00AF4EEC00AF1EE10FA11DC124835
:101F600080680F49896888420EDADDED020A0C4864
:101F700090ED020AB8EEC00AF4EEC00AF1EE10FAD3
:101F800002D2012001E001E00020A870012067E6F4
:101F9000B42C0208C02C02086802002050FBFFFF8E
:101FA0007400002080000020B40200200FB410B59F
:101FB0002DED048B9DED0C8A0D9C9FED450AF0EEF6
:101FC000408A9FED430AB0EE409A9FED410AF0EE41
:101FD000409A34B94FF0FF30BDEC048B10BC5DF873
:101FE00014FB06990998401A00EE100AB8EEC00AD0
:101FF000F8EE480A80EE201A9FED360A21EE000A1C
:10200000F0EE408A07990A98401A00EE100AB8EEDE
:10201000C00AF8EE480A80EE201A9FED2E0A21EE43
:10202000000AB0EE409A08990B98401A00EE100A88
:10203000B8EEC00AB8EE481AC0EE010A9FED250AB4
:1020400020EE800AF0EE409AF5EEC08AF1EE10FA2A
:1020500006DBB7EE000A38EE800ABDEEC00A05E0E6
:10206000B7EE000A38EEC00ABDEEC00A84ED000AE1
:10207000B5EEC09AF1EE10FA06DBB7EE000A39EEC3
:10208000000ABDEEC00A05E0B7EE000A39EE400ACC
:10209000BDEEC00A84ED010AF5EEC09AF1EE10FA29
:1020A00006DBB7EE000A39EE800ABDEEC00A05E095
:1020B000B7EE000A39EEC00ABDEEC00A84ED020A8E
:1020C00020460EA90EC900F039F9012084E700006E
:1020D000000000000000C8420FB410B590B00446E4
:1020E00000200D900E900F900A900B900C9007908E
:1020F0000890099024B1012C7ED0022C7BD1E6E01F
:1021000087480078012804D1801E10B010BC5DF80B
:1021100014FB9DF84C0018B1824800680D9004E053
:1021200080480068189908440D909DF84D0018B13A
:102130007C4840680E9004E07A4840681999084449
:102140000E909DF84E0018B1764880680F9004E01C
:10215000744880681A9908440F909DED0D0AB8EEF6
:10216000C00A8DED0A0A9DED0E0AB8EEC00A8DED8B
:102170000B0A9DED0F0AB8EEC00A8DED0C0A002087
:10218000009069480EC80AA8FFF754FD9DED0A0AA1
:10219000BDEEC00A8DED0D0A9DED0B0ABDEEC00A25
:1021A0008DED0E0A9DED0C0ABDEEC00A8DED0F0AF5
:1021B0005E480DA90EC90EC00120594908700220C1
:1021C0005B4908705B4AD2E900109268CDE90502CC
:1021D00004915949BDF85000CDE902015349D1E9B4
:1021E0000101CDE90001514803684E4807C8FFF7D7
:1021F000DDFE92E000E08DE049480078012801D141
:10220000801E82E79DF84C0018B1464800680D908A
:1022100001E018980D909DF84D0018B141484068B4
:102220000E9001E019980E909DF84E0018B13D48AF
:1022300080680F9001E01A980F909DED0D0AB8EE9E
:10224000C00A8DED0A0A9DED0E0AB8EEC00A8DEDAA
:102250000B0A9DED0F0AB8EEC00A8DED0C0A0020A6
:10226000009031480EC80AA8FFF7E4FC9DED0A0A69
:10227000BDEEC00A8DED0D0A9DED0B0ABDEEC00A44
:102280008DED0E0A9DED0C0ABDEEC00A8DED0F0A14
:1022900026480DA90EC90EC0012021490870022050
:1022A00023490870234A07CA04AB07C32249BDF873
:1022B0005000CDE902011D49D1E90101CDE900013C
:1022C0001A480368174807C8FFF770FE25E014484E
:1022D0000078012805D116480078022801D1C01ED7
:1022E00013E718A807C807AB07C312480EC807A80A
:1022F00000F024F8104807A90EC90EC0189818B9A4
:10230000199808B91A9820B10120054908700849A0
:10231000087002E04FF0FF30F7E600BF0120F4E65E
:102320006F000020C002002000030020DC0200201B
:1023300070000020CC2C0208E80200200FB50168D4
:10234000019A914201DD019900E001680160416854
:10235000029A914201DD029900E041684160816882
:10236000039A914201DD039900E081688160016870
:10237000019A5242914202DA0199494200E0016811
:1023800001604168029A5242914202DA029949423E
:1023900000E0416841608168039A5242914202DA4A
:1023A0000399494200E0816881600FBD10B580202B
:1023B00000F052F948B1012000F05AF9012118202B
:1023C00000F07CF9802000F0A7F810BD70B5002166
:1023D00000230F22C4781CB3174C246804F4E06473
:1023E000C4F5E064C4F30721C1F10404E3B20A4177
:1023F00044789C40E1B28478144021430C07210EBC
:102400000E4C05786155047804F01F050124AC409A
:1024100005786D11AD0005F1E025C5F8004109E032
:10242000047804F01F050124AC40054D06787611B0
:1024300045F8264070BD00000CED00E000E400E02F
:1024400080E100E002490143024A11607047000048
:102450000000FA050CED00E029B1064A12680243BB
:10246000044B1A6004E0034A12688243014B1A606D
:10247000704700003038024029B1064A1268024312
:10248000044B1A6004E0034A12688243014B1A604D
:10249000704700001038024029B1064A1268024312
:1024A000044B1A6004E0034A12688243014B1A602D
:1024B000704700004038024029B1064A12680243C2
:1024C000044B1A6004E0034A12688243014B1A600D
:1024D000704700002038024029B1064A12680243C2
:1024E000044B1A6004E0034A12688243014B1A60ED
:1024F000704700004438024029B1064A126802437E
:10250000044B1A6004E0034A12688243014B1A60CC
:1025100070470000243802400149087070470000ED
:102520000E3802400149C86470470000000047426D
:10253000F0B5002100220024022500260223324F9C
:102540003F6807F00C0121B1042905D0082937D1D3
:1025500005E02E4F076036E02D4F076033E02A4F2D
:102560003F1F3F68C7F38056274F3F1F3F6807F064
:102570003F036EB1264FB7FBF3F7DFF88CC0ACF129
:10258000040CDCF800C0CCF3881C07FB0CF40CE056
:102590001E4FB7FBF3F7DFF870C0ACF1040CDCF8AA
:1025A00000C0CCF3881C07FB0CF4174F3F1F3F689B
:1025B000C7F301477F1C7D00B4FBF5F7076002E01D
:1025C000124F076000BF00BF0F4F3F6807F0F001D8
:1025D0000909104F7A5C0768D74047600A4F3F6887
:1025E00007F4E051890A0B4F7A5C4768D74087604F
:1025F000054F3F6807F46041490B064F7A5C476816
:10260000D740C760F0BD0000083802400024F40045
:1026100000127A004C02002010B50146002200236F
:1026200000204A11012A02D10A4C236808E0022A3C
:1026300003D1084C7034236802E0064C74342368DC
:1026400001F01F02012494401C400CB1012000E065
:10265000002010BD0038024001460020034A1268E5
:102660000A400AB1012000E0002070470C38024007
:102670000021024A1170114608707047023802406A
:1026800010B50820FFF7E8FF48B10820FFF744FF26
:102690003120FFF7C1FF10B1012000F01FF810201A
:1026A000FFF7DAFF48B11020FFF736FF3920FFF7B8
:1026B000B3FF10B1022000F017F810BD29B1064A8F
:1026C00012780243044B1A7004E0034A12788243E2
:1026D000014B1A70704700000D380240014908662E
:1026E000704700000000474201460020034A10687E
:1026F00020F00300084310607047000008380240D3
:1027000021B1028842F04002028004E002884FF6C4
:10271000BF731A400280704710B5044624488442B3
:1027200008D101218014FFF7E7FE0021A014FFF774
:10273000E3FE3CE01F48844208D101210014FFF76A
:10274000BBFE00212014FFF7B7FE30E01A48844298
:1027500008D10121C013FFF7AFFE0021E013FFF7FE
:10276000ABFE24E01548844208D101214014FFF754
:10277000C3FE00216014FFF7BFFE18E0104884423A
:1027800009D101210805FFF7B7FE00214FF48010A1
:10279000FFF7B2FE0BE00B48844208D10121480547
:1027A000FFF7AAFE00214FF40010FFF7A5FE10BDB1
:1027B0000030014000380040003C0040003401403F
:1027C00000500140005401400246002013890B4094
:1027D0000BB1012000E00020704701468889704756
:1027E0008181704710B50022028802F441520B88A3
:1027F0004C8823438C882343CC8823430C89234370
:102800004C8923438C892343CC8923431A43028078
:10281000838B4FF2FF74234083830B8A038210BDA6
:102820000CB50020019000903448006840F48030DE
:102830003249086000BF3148006800F40030009061
:102840000198401C0190009818B90198B0F5A04F6C
:10285000F1D12A48006800F4003010B10120009046
:1028600001E0002000900098012846D12348403024
:10287000006840F0805021494031086020480068DD
:1028800040F440401E4908601C48083000681B495D
:10289000083108600846006840F4004008600846B7
:1028A000006840F4A05008601648091F0860081F1F
:1028B000006840F08070091F086000BF0F48006882
:1028C00000F000700028F9D040F205700E49086051
:1028D0000A480830006820F0030008490831086001
:1028E0000846006840F00200086000BF0348083056
:1028F000006800F00C000828F8D10CBD0038024038
:102900000070004008544007003C02400348006843
:102910000078401C0149096808707047BC0100201C
:1029200010B51548006840F470001349086013485A
:10293000006840F001001149086000200F4908318B
:1029400008600E4800680E4908400C4908600D48B0
:10295000091D0860081F006820F48020091F086016
:10296000002006490C310860FFF75AFF4FF0006065
:1029700001498039086010BD88ED00E00038024050
:10298000FFFFF6FE10300024F0B50C46154600217E
:102990000022068C4FF6FE773E400684018B028CA7
:1029A0004FF60C7631407E1C06EA03162E43314367
:1029B0004FF6F576324044F001063243018302843B
:1029C000F0BDF0B50C461546002100220026078C0C
:1029D0004FF6EF7C07EA0C070784018B028C4FF659
:1029E000FF7707EA041640F6FF4739404FF6FF77B6
:1029F00007EA033739434FF6FF7707EA05273943DC
:102A00004FF65F773A4046F010073A43018302845D
:102A1000F0BDF0B50C461546002100220026078CBB
:102A20004FF6FF6C07EA0C070784818B028C4FF688
:102A3000FF7707EA04264FF60C7739404FF6FF7709
:102A400007EA03172F4339434FF2FF573A4046F442
:102A500080773A4381830284F0BDF0B50C46154679
:102A6000002100220026078C4EF6FF7C07EA0C07A7
:102A70000784818B028C4FF6FF7707EA043640F615
:102A8000FF4739404FF6FF7707EA052739434FF6EE
:102A9000FF7707EA0337394345F6FF773A4046F4B4
:102AA00080573A4381830284F0BD00002DE9FC4148
:102AB0000220019000909DF80400FFF7A5F804465D
:102AC0009DF80000FFF796F805462989E06800F0B8
:102AD00079F970B108480668E0686969884707466F
:102AE0007069416B384688472989E06800F078F8BA
:102AF00000BFBDE8FC810000AC0000207CB50420D4
:102B00000190012000909DF80400FFF77DF8044635
:102B10009DF80000FFF76EF805462989E06800F08F
:102B200051F950B1054806680120B16889680871FB
:102B30002989E06800F054F800BF7CBDA0010020A6
:102B40007CB505200190012000909DF80400FFF75E
:102B50005BF804469DF80000FFF74CF8054629890C
:102B6000E06800F02FF950B1054806680120B1680F
:102B7000096808712989E06800F032F800BF7CBD5F
:102B8000A00100207CB508200190012000909DF854
:102B90000400FFF739F804469DF80000FFF72AF813
:102BA00005462989E06800F00DF950B1054806682E
:102BB0000120B168496808712989E06800F010F8BF
:102BC00000BF7CBDA001002021B1028842F080023C
:102BD000028004E002884FF67F731A40028070473B
:102BE000CA430282704721B1028842F0010202808A
:102BF00004E002884FF6FE731A400280704731B13C
:102C0000B0F8442042F40042A0F8442005E0B0F8B7
:102C10004420C2F30E02A0F84420704710B50446C9
:102C20005548844208D101210846FFF765FC002180
:102C30000120FFF761FC9DE0B4F1804F08D1012134
:102C40000846FFF739FC00210120FFF735FC91E031
:102C50004A48844208D101210220FFF72DFC0021BF
:102C60000220FFF729FC85E04548844208D1012174
:102C70000420FFF721FC00210420FFF71DFC79E070
:102C80004048844208D101210820FFF715FC0021AB
:102C90000820FFF711FC6DE03B48844208D1012178
:102CA0001020FFF709FC00211020FFF705FC61E070
:102CB0003648844208D101212020FFF7FDFB002186
:102CC0002020FFF7F9FB55E03148844208D101216B
:102CD0000220FFF711FC00210220FFF70DFC49E064
:102CE0002C48844209D101210804FFF705FC00218A
:102CF0004FF48030FFF700FC3CE02748844209D1C4
:102D000001214804FFF7F8FB00214FF40030FFF7E2
:102D1000F3FB2FE02148844209D101218804FFF709
:102D2000EBFB00214FF48020FFF7E6FB22E01C487C
:102D3000844208D101214020FFF7BEFB0021402042
:102D4000FFF7BAFB16E01748844208D10121802022
:102D5000FFF7B2FB00218020FFF7AEFB0AE012482C
:102D6000844207D101218015FFF7A6FB0021A015A1
:102D7000FFF7A2FB10BD000000000140000400406E
:102D800000080040000C004000100040001400400B
:102D9000000401400040014000440140004801405F
:102DA00000180040001C0040002000400146486B15
:102DB00070470146886B70470146C86B70470146F3
:102DC000086C704730B50246002000230024158AA5
:102DD00005EA0103958905EA010413B10CB101204C
:102DE00000E0002030BD70B505460C46208850B983
:102DF0002389A28861882846FFF7C6FDE188284616
:102E000000F08FF925E0208804280AD12389A288C0
:102E100061882846FFF7D5FDE188284600F08AF949
:102E200017E0208808280AD12389A28861882846CB
:102E3000FFF7EFFDE188284600F089F909E02389D2
:102E4000A28861882846FFF708FEE188284600F03E
:102E500087F970BD1AB183890B43838102E08389AE
:102E60008B4383817047000070B50024002200234B
:102E7000058C4FF6FE7635400584028C8388048BE2
:102E80004FF68F752C40B51E2C400D882C43751EB7
:102E90002A408D892A434D882A43104DA84202D0EA
:102EA0000F4DA84213D14FF6F7752A40CD892A431A
:102EB0004FF6FB752A408D882A434FF6FF652B405D
:102EC0004FF6FF552B400D8A2B434D8A2B438380B1
:102ED00004838D684563028470BD000000000140DA
:102EE000000401400A460021018B4FF6F773194098
:102EF000114301837047000070B5002400220023B5
:102F0000058C4FF6EF7635400584028C8388048B60
:102F100048F6FF752C404FF6FF452C400D884FF6C4
:102F2000FF7606EA05252C434FF6DF752A408D898A
:102F300006EA05152A434D8806EA05152A43154D6C
:102F4000A84202D0144DA8421DD14FF67F752A40E9
:102F5000CD894FF6FF7606EA05152A434FF6BF7571
:102F60002A408D8806EA05152A434FF6FF352B4087
:102F70004FF2FF752B400D8A06EA85052B434D8ADB
:102F800006EA85052B43838004838D68856302846C
:102F900070BD000000000140000401400A4600210D
:102FA000018B4FF2FF7319404FF6FF7303EA0223C0
:102FB000194301837047000070B5002400220023EC
:102FC000058C4FF6FF6635400584028C8388848B20
:102FD0004FF68F752C404FF6FC752C400D882C4316
:102FE0004FF6FF552A408D894FF6FF7606EA0525F4
:102FF0002A434D8806EA05252A43154DA84202D0EA
:10300000144DA8421DD14FF2FF752A40CD894FF6CD
:10301000FF7606EA05252A434FF6FF352A408D88BC
:1030200006EA05252A434EF6FF752B404DF6FF753F
:103030002B400D8A06EA05152B434D8A06EA051535
:103040002B43838084838D68C563028470BD000038
:1030500000000140000401400A460021818B4FF628
:10306000F7731940114381837047000070B5002247
:1030700000230024058C4EF6FF7635400584038C32
:103080008488828B48F6FF752A404FF6FF452A4018
:103090000D884FF6FF7606EA05252A434DF6FF75A3
:1030A0002B408D8906EA05352B434D8806EA053508
:1030B0002B430A4DA84202D0094DA84208D14BF635
:1030C000FF752C400D8A4FF6FF7606EA85152C43D6
:1030D000848082838D680564038470BD0000014094
:1030E000000401400A460021818B4FF2FF73194012
:1030F0004FF6FF7303EA02231943818370470A46A0
:10310000002101894FF68F731940114301817047E7
:1031100002894FF6F8731A40028102890A4302813C
:103120007047028B4FF6F3731A400283028B0A43F7
:1031300002837047028B4FF2FF331A400283028BE7
:103140004FF6FF7303EA01231A4302837047828B11
:103150004FF6F3731A408283828B0A43828370474F
:10316000828B4FF2FF331A408283828B4FF6FF73BC
:1031700003EA01231A438283704700000022028879
:10318000184B98420ED0184B98420BD0B0F1804F9C
:1031900008D0164B984205D0154B984202D0154BDB
:1031A000984204D14FF68F731A404B881A43124B42
:1031B000984207D0114B984204D04FF6FF431A4073
:1031C0000B891A4302804B68C3620B880385054B49
:1031D000984202D0044B984201D18B7A0386012396
:1031E0008382704700000140000401400004004059
:1031F00000080040000C0040001000400014004097
:103200007CB5052001909DF80400FEF709FDC56816
:1032100040F22551284600F0C3F8012827D128465E
:1032200000F078F9C0B2009011480468207A0128B3
:1032300005D0207A0D2802D0207A0E2805D1E0682A
:10324000416B9DF80000884710E0207A042805D1E2
:103250002069016C9DF80000884707E0207A052866
:1032600004D12069C16B9DF80000884700BF7CBD78
:10327000AC00002001F40072B2F5007F00D100BF65
:10328000CA430280704721B1828942F40052828190
:1032900004E082894DF6FF731A40828170471AB1AB
:1032A000838A0B43838202E0838A8B438382704745
:1032B00010B504463248844208D101211020FFF79E
:1032C0001BF900211020FFF717F957E02D48844221
:1032D00009D101214804FFF7EFF800214FF4003035
:1032E000FFF7EAF84AE02848844209D1012188041E
:1032F000FFF7E2F800214FF48020FFF7DDF83DE012
:103300002248844209D10121C804FFF7D5F80021E1
:103310004FF40020FFF7D0F830E01D48844209D177
:1033200001210805FFF7C8F800214FF48010FFF7CE
:10333000C3F823E01748844208D101212020FFF779
:10334000DBF800212020FFF7D7F817E0124884426D
:1033500009D101218807FFF7AFF800214FF0804025
:10336000FFF7AAF80AE00D48844207D10121400581
:10337000FFF7A2F800216005FFF79EF810BD0000DE
:10338000001001400044004000480040004C004054
:10339000005000400014014000780040007C0040D4
:1033A00070B50246002400230025002040F66A166E
:1033B000B14200D100BFC1F3421501F01F03012645
:1033C00006FA03F3012D02D19689334006E0022D5F
:1033D00002D1168A334001E0968A33400C1201264E
:1033E00006FA04F41688344013B10CB1012000E051
:1033F000002070BDF0B50346002400260025002003
:1034000040F66A17B94200D100BF1846C1F3421412
:1034100001F01F06012707FA06F5012C01D10C3037
:1034200004E0022C01D1103000E014301AB107681A
:103430002F43076002E00768AF430760F0BD00005C
:103440002DE9FF4705460E460024A14600BFA046D1
:10345000B08900B100BF2C8A24F44054F0880443A2
:103460002C82AC8941F20C608443B08831890843D6
:10347000718908430443AC81AC8A24F44074B08958
:103480000443AC826846FFF753F82048854202D0D7
:103490001F48854202D1DDF80C9001E0DDF808906C
:1034A000A88900F4004040B109EBC90000EB091005
:1034B00031684900B0FBF1F707E009EBC90000EB08
:1034C000091031688900B0FBF1F76420B7FBF0F018
:1034D00004012009642101FB1078A88900F4004050
:1034E00040B1322000EBC800B0FBF1F000F0070063
:1034F000044308E0322000EB08106421B0FBF1F037
:1035000000F00F0004432C81BDE8FF87001001404C
:103510000014014001468888C0F30800704700008D
:103520000FB4084B10B504A902AA039801F0EEF9F4
:10353000044602A9002001F077FC204610BC5DF88B
:1035400014FB0000294E000803B4019841000098C4
:1035500050EAC12018BF04204A0D18BF40F00100F6
:1035600040F2FF72B2EB515F08BF40F00200012849
:1035700008BF052002B0704770B59B482DED020BC7
:103580002DED068B079D25F00044A04218DC9748DE
:10359000844202DC0AD1069840B19DED060BBDECD9
:1035A000068B02B0BDE8704001F046B9002DCCBFDB
:1035B0009FED8F0B9FED900BBDEC068B02B070BDA5
:1035C0008F48A04215DD8F48A042D8BF4FF0FF348E
:1035D00058DD9DED060B51EC100BFFF7B5FF0428ED
:1035E00008BF01F05DF99DED060BBDEC068B02B046
:1035F00070BD9DED060B51EC100B01F015FDCDE9F2
:10360000060181489FED828BA0423CDD8248A042AA
:103610001FDD00249FED82AB9DED060B53EC1A2BB2
:1036200051EC100BFCF77BFF9DED060B41EC190BE9
:1036300053EC1A2B51EC100BFDF718F853EC182B28
:10364000FDF70EF853EC192BFDF782F8CDE90601D2
:1036500049E09DED060B012453EC182B51EC100BA7
:10366000FCF75DFF9DED060B41EC190B53EC182B9D
:1036700051EC100BFCF7F4FF53EC192BFDF768F835
:10368000CDE906012FE06848A0421FDD02249FED2E
:10369000689B9DED060B53EC192B51EC100BFCF7BE
:1036A000E5FF53EC182BFCF73AFF9DED060B41ECC0
:1036B000180B53EC192B51EC100BFCF7D1FF53EC0A
:1036C000182BFDF745F8CDE906010CE09DED060B42
:1036D000032453EC102B9FED580B51EC100BFDF70E
:1036E00037F8CDE906019DED060B53EC102B51EC9C
:1036F000100BFCF7BBFF41EC180B53EC182BFCF73D
:10370000B5FF41EC190B4E480621B0EE490AF0EE28
:10371000690A784400F0F9FF53EC182B51EC100BB8
:10372000FCF7A4FF41EC180B4648B0EE490AF0EE56
:10373000690A0521784400F0E8FF53EC192B51EC9D
:10374000100BFCF793FF41EC100B51EC180B53ECF2
:10375000102B002C0EDAFCF7E2FE9DED061B53EC5D
:10376000112BFCF783FF9DED061B53EC112BFCF78F
:103770007AFF35E0FCF7D3FE9DED061B53EC112BD1
:10378000FCF774FF41EC100B2F48784400EBC400A9
:1037900090ED001B51EC100B53EC112BFCF760FF6C
:1037A0009DED061B53EC112BFCF75AFF41EC100B5F
:1037B0002648784400EBC40090ED001B51EC100B40
:1037C00053EC112BFCF74FFF41EC100B002DA2BF67
:1037D000BDEC068B02B070BD51EC100B81F00041C6
:1037E00041EC100B01E70000000010440000F07FE6
:1037F000182D4454FB21F93F182D4454FB21F9BFE7
:103800000000DC3F0000203E0000F33F000000000D
:10381000000000000000F03F0000E63F0000000054
:103820000000000000000040008003400000000095
:10383000000000000000F83F000000000000F0BFA2
:1038400012540200C8530200525302000A530200ED
:1038500070B56B4E2DED040B2DED028B82B0DDF8B3
:103860001CC0DDE905235C422CF000411C4341EA09
:10387000D474049D22F00040B44205D86C422C431D
:1038800040EAD474B4420BD99DED061B9DED040BA8
:1038900002B0BDEC028B04B0BDE8704000F0D6BFB2
:1038A000ACF14054A4F17F641C430BD0022404EA21
:1038B000AC7444EAD27405439FED538B9FED542BB7
:1038C00007D015E09DED040B51EC100B01F0D2FA7E
:1038D00042E0002C11BF012C9DED040B02B0BDECA9
:1038E000028B04BF04B070BD022C38D0032C3BD037
:1038F0000B439FED491B9FED4A0B0AD0B14218D1F3
:10390000B04209D121F0804120F08040079105901C
:103910000FE0002A15DA10E0434B7B44002C08BF6F
:1039200093ED000B0DD0012C10D0022C17D0032CDE
:103930001AD0B0421DD1002A03DAB0EE410AF0EEEF
:10394000610A02B0BDEC028B04B070BD93ED000BB8
:1039500051EC100B81F0004141EC100BF1E7B0EE9F
:10396000480AF0EE680AECE7B0EE420AF0EE620AAE
:10397000E7E7401A00153C28C8BF8DED000B19DCA5
:10398000BCF1000FBEBF10F13C0F9FED290B8DED78
:10399000000B0FDB9DED060B53EC102B9DED040B84
:1039A00051EC100BFCF7D4FE01F03EFB01F062FA83
:1039B000CDE90001002C08BF9DED000BC1D0012C0A
:1039C00010D0022C9FED1C0B53EC102B9DED000B27
:1039D00051EC100B0DD0FCF743FE53EC182BFCF709
:1039E0003FFEB9E7019880F0004001909DED000B8B
:1039F000A7E7FCF735FE53EC182BFCF734FEABE7DA
:103A00000000F07F00000000182D4454FB21094005
:103A1000182D4454FB2109C0182D4454FB21F9BF33
:103A2000182D4454FB21F93FDAD6010000000000B4
:103A30000000000000000000075C143326A6A13C33
:103A40002DE9F04D2DED040B2DED0E8B96B0DDE93B
:103A50002550279CDDF890A025F0004624F0004872
:103A6000BAF1000F14BF0121002101EB4502FC490E
:103A700053184A1093422AD3002814BF012300236D
:103A800003EB44030B44F7498B4220D358EA00016F
:103A90009FEDF59B76D0DFF8D8B35D4503D1BAF141
:103AA000000F05D188E0BAF1000F08BF002100D057
:103AB000012101EB450111F5001F08D8002814BFB2
:103AC0000121002101EB440111F5001F0BD99DEDEF
:103AD000261B9DED240B16B0BDEC0E8B04B0BDE88B
:103AE000F04D00F0B3BE0027002DBCBFE149884572
:103AF00021DAE1498845A8BF02271CDAC3451ADC50
:103B0000DE4901EB2851142908DDC1F1340220FA05
:103B100002F101FA02F282420DD108E058B9C1F176
:103B2000140228FA02F101FA02F2424503D101F02F
:103B30000101C1F1020756EA0A0124D1002C22DA60
:103B4000002D18BF022F01D0012F0AD0022000F053
:103B5000C7FE16B0BDEC0E8B04B0BDE8F04D00F012
:103B600053BE022000F0BCFE00F04EFE51EC100BE4
:103B700081F0004141EC100B16B0BDEC0E8B04B08F
:103B8000BDE8F08D18E09FEDBEAB9FEDBF8B002828
:103B900071D1B848804522D105F1804010F58010E0
:103BA00008BFBAF1000F07D0B3450ADC002CA8BF4C
:103BB0009DED260BE0DA0DE0B0EE490AF0EE690A61
:103BC000DAE7002C06DA9DED260B51EC100B81F0A4
:103BD00000416FE0AE48784490ED000BCCE7D8454B
:103BE0004DD1002C48DA2EB186423AD1BAF1000FFD
:103BF00042D126E0BAF1000F13D0022000F070FE8F
:103C000000F03EFE8DED020B9DED240B8DED000BC3
:103C100010EE900A039961F31E0003909DED020BD4
:103C2000AAE78DED02AB9DED240B1AEE901A10EE73
:103C3000900A8DED000B61F31E0003909DED020BC9
:103C40009AE78DED028B9DED240B18EE901A10EE85
:103C5000900A8DED000B61F31E0003909DED020BA9
:103C60008AE709DA9DED240B51EC190B53EC102B6C
:103C7000FCF76EFD1EE020E09DED240B7CE7864204
:103C80001BDAB4F1804F0DD0A4F10050B0F1FF5019
:103C900013D1002D11DB9DED240B51EC100B1EF008
:103CA000D1FF07E09DED240B53EC102B51EC100BD2
:103CB00000F0C2BC41EC100B5EE79DED240B51EC13
:103CC000100B01F0B1F9BAF1000FCDE90E0142D1AC
:103CD0009FED710B46B3A6F1E040B0F17F600CD0D0
:103CE0005E4538D1002D00DAA7B3022F0CBF0120AA
:103CF0004FF0FF30FCF79BFDDCE7002D01DD002CD1
:103D00000DDA002D01DD002C1FDB002D16DA002C52
:103D100014DB012F08BF9FED620B3FF42DAFB0EE17
:103D20004A0AF0EE6A0A27E7022F18BF002D0CD0CE
:103D3000012F0AD1002DFFF61FAF06E0002DB8BFFE
:103D4000002C08DA012F3FF417AFB0EE480AF0EE6E
:103D5000680A11E71BE0012000EBE57050EA07015B
:103D600015D0791EB0EE498AF0EE698A084308BF83
:103D70009FED4D8B4E480025804570DD4D494E48E6
:103D8000884514DDB0420DDB002C19DB2FE001204B
:103D900000F0A6FD16B0BDEC0E8B04B0BDE8F04DF2
:103DA00000F05EBDB34502DC002C09DC1FE086425A
:103DB00002DA002C1BDA03E05E452BDD002C16DD59
:103DC000022000F08DFD00F05BFD8DED020B53EC49
:103DD0001A2B51EC180BFCF749FCCDE900010399B3
:103DE000019861F31E0003909DED020BC4E60220D2
:103DF00000F076FD00F054FD10EE901A18EE900AD7
:103E00008DED020B8DED008B61F31E0003909DED97
:103E1000020BB1E69DED0E0B53EC192B51EC100B80
:103E2000FCF71EFC9FED260BCDE9080153EC102B8F
:103E30009DED080B51EC100BFCF718FC9FED221BBD
:103E400053EC112BFCF70FFC9DED081B53EC112BD1
:103E5000FCF70CFC9FED1E1B53EC112B3CE08CE09F
:103E6000FFFF1F00FFFF0F00000000000000F03FF9
:103E70000000F03F0000F07F0000404301FCFFFF26
:103E8000000000000000F07F0000000000000000C3
:103E90001ED40100000000000000000000000080AF
:103EA000000000000000F0FF000000000000F0BF74
:103EB0000000E0410000F043FFFFEF3F0000000082
:103EC000000000000000D03F555555555555D53FD1
:103ED000000000000000E03FFCF7C5FB9DED080B73
:103EE00041EC1A0B53EC102B51EC100BFCF7BEFB02
:103EF00053EC1A2BFCF7BAFB41EC1A0B9FEDFE0BAF
:103F000053EC102B9DED080B51EC100BFCF7AEFBA6
:103F100041EC1B0B9FEDFA0B51EC1A0B53EC102BE1
:103F2000FCF7A4FB41EC1A0B9FEDF70B53EC102BA5
:103F30009DED080B51EC100BFCF798FB53EC1A2B82
:103F4000FCF78EFB41EC1A0B51EC1B0B53EC1A2BBC
:103F5000FCF7E5FA0690CDE906519DED060B53EC12
:103F60001B2B51EC100BFCF77BFB53EC1A2BFCF7D3
:103F70007AFB41EC100B00F0A1B90020B6F5801FD0
:103F80000EDA9FEDE30B53EC102B9DED0E0B51EC75
:103F9000100BFCF76BFBCDE90E016FF034000E4601
:103FA00000EB2650A0F2FF37C6F31300DA4940F0C9
:103FB0007F6646F040568842D8BF002408DDD749C6
:103FC0008142C8BF012403DC0024A6F580167F1CB3
:103FD000D348784400EBC4000F9690ED00CB9DEDE4
:103FE0000E0B53EC1C2B51EC100BFCF739FB9DED29
:103FF0000E0B41EC1B0B53EC1C2B51EC100BFCF784
:104000008EFA41EC100B51EC190B53EC102BFCF712
:104010009FFB41EC1D0B51EC1B0B53EC1D2BFCF7D4
:1040200025FB41EC1A0BBF488DED10AB7844109581
:1040300090ED000B4FF0005040EA660000EB84402A
:104040008DED080B00F5002009909DED080B53EC59
:104050001C2B51EC100BFCF703FB9DED0E1B53ECDE
:10406000112BFCF700FB41EC100B53EC102B9DEDDA
:10407000100B51EC100BFCF7F9FA9DED080B41EC1D
:104080001C0B53EC102B9DED100B51EC100BFCF79F
:10409000EDFA53EC1B2BFCF7E6FA53EC1C2BFCF768
:1040A000DFFA53EC1D2BFCF7E1FA41EC1C0B53EC4F
:1040B0001A2B51EC1A0BFCF7D9FA41EC1B0B9A485E
:1040C0000621B0EE4B0AF0EE6B0A784400F01DFBBF
:1040D000B0EE401AF0EE601AB0EE41DAF0EE61DABE
:1040E00053EC1B2B51EC1B0BFCF7C0FA53EC1D2BB4
:1040F000FCF7BCFA9DED100B41EC1B0B53EC1A2B9B
:1041000051EC100BFCF70BFA53EC1C2BFCF7AEFA3E
:1041100053EC1B2BFCF703FA9DED100B41EC1B0B32
:1041200053EC102B51EC100BFCF7A0FA41EC1D0BDB
:104130009FED7FEB53EC1E2BFCF7F1F953EC1B2B9F
:10414000FCF7EDF90890CDE908519DED080B53EC13
:104150001E2B51EC100BFCF783FA53EC1D2BFCF7D4
:104160007FFA53EC1B2BFCF77EFA9DED080B41EC1C
:104170001D0B53EC102B9DED100B51EC100BFCF7AD
:1041800075FA41EC1B0B53EC1A2B51EC1D0BFCF791
:104190006DFA9DED080B41EC1A0B53EC102B51EC12
:1041A0001C0BFCF763FA53EC1A2BFCF7B8F941EC43
:1041B0001A0B51EC1B0B53EC1A2BFCF7B0F90C90BB
:1041C000CDE90C519DED0C0B53EC1B2B51EC100B5E
:1041D000FCF746FA53EC1A2BFCF745FA41EC1B0BA3
:1041E0009FED550B53EC102B9DED0C0B51EC100B70
:1041F000FCF73CFA41EC1A0B9FED510B51EC1B0BF9
:1042000053EC102BFCF732FA41EC1B0B9FED4E0BDD
:1042100053EC102B9DED0C0B51EC100BFCF726FA18
:1042200053EC1B2BFCF77BF941EC100B484878440E
:1042300000EBC40090ED001B51EC100B53EC112B64
:10424000FCF76DF941EC1B0B3846FCF7F0FACDE9B1
:10425000080153EC1B2B51EC1A0BFCF760F941ECF5
:10426000100B3C48784400EBC40090ED00CB51ECBF
:10427000100B53EC1C2BFCF752F99DED081B53EC73
:10428000112BFCF74CF90690CDE906519DED080B7A
:1042900053EC102B9DED060B51EC100BFCF7E0F9E5
:1042A00053EC1C2BFCF7DCF953EC1A2BFCF7D8F978
:1042B00053EC1B2BFCF7D7F941EC100B9DED261BA3
:1042C00053EC102B8DED001B00959DED260B51EC52
:1042D000100BFCF7CBF99DED000B41EC1A0B53ECE6
:1042E000102B9DED260B51EC100BFCF7B9F99DED51
:1042F000061B53EC112B2FE0000000604715F73F21
:10430000FE822B654715F73F44DF5DF80BAE543E48
:1043100000000000000040438E9803007AB60B00B6
:10432000624A0200C8CF01009A4902000000000062
:104330000000000000000840000000E009C7EE3F58
:10434000FD033ADC09C7EE3FF5015B14E02F3EBEEA
:1043500026480200E0470200FCF788F953EC1A2BCC
:10436000FCF7DDF89DED060B41EC1A0B53EC102B1E
:104370009DED000B51EC100BFCF778F9CDE90C0129
:104380009DED0C0B51EC1A0B53EC102BFCF7C7F8FE
:10439000CDE902010C46AA498C422FDB611A084381
:1043A00018D19DED0C0B53EC102B9DED020B51EC35
:1043B000100BFCF755F941EC1B0B9FEDA30B51ECD7
:1043C0001A0B53EC102BFCF7AAF853EC1B2BFCF741
:1043D000C3FA2DD2022000F083FA00F051FA10EE59
:1043E000901A18EE900A8DED020B8DED008B61F3A3
:1043F0001E0003909DED020BFFF7BEBB944A24F014
:104400000041914214D39349214408437FF4EFAC17
:104410009DED0C0B53EC102B9DED020B51EC100B92
:10442000FCF71EF953EC1A2BFCF796FA7FF6DFAC7B
:1044300024F000408849894A002601EB205182423D
:104440002BDA481C4FF4801121FA00F02044844AF2
:10445000C0F30A517A44A1F2FF3192ED000B814A78
:104460008DED080BCA4020EA0202C0F3130040F4AD
:104470008010C1F1140120FA01F60992002CB8BF96
:1044800076429DED080B53EC102B9DED0C0B51EC7F
:10449000100BFCF7E5F8CDE90C019DED0C0B51EC90
:1044A0001A0B53EC102BFCF73AF89FED6F0B0890AA
:1044B000CDE9085153EC102B9DED080B51EC100B7E
:1044C000FCF7D4F841EC1B0B9FED690B53EC102B60
:1044D0009DED080B51EC100BFCF7C8F89DED0C0B93
:1044E00041EC1C0B53EC102B9DED080B51EC100B09
:1044F000FCF7B6F853EC1A2BFCF7B5F89FED5E1BF2
:1045000053EC112BFCF7B2F853EC1C2BFCF707F81B
:1045100041EC1A0B51EC1B0B53EC1A2BFBF7FFFF72
:10452000CDE902019DED020B53EC1B2B51EC100B5E
:10453000FCF796F853EC1A2BFCF795F89DED020B5F
:1045400041EC1A0B53EC102B51EC100BFCF78EF8CE
:10455000CDE908014A489DED080B0521784400F09B
:10456000D4F89DED081B51EC100B53EC112BFCF70C
:104570007DF89DED021B53EC112BFCF774F8CDE98F
:1045800006019DED020B53EC1A2B51EC100BFCF7BE
:104590006DF853EC1A2BFBF7C2FF9FED3B0B41EC80
:1045A0001A0B53EC102B9DED060B51EC100BFCF786
:1045B00057F89DED060B41EC1B0B53EC102B9DEDBA
:1045C000020B51EC100BFCF751F853EC1B2BFCF7D2
:1045D000BFF853EC1A2BFCF743F89DED021B53EC8C
:1045E000112BFCF73DF853EC192BFCF73CF8CDE907
:1045F000020101EB065001150029C8BF039015DC2C
:104600009DED020B324651EC100BFCF79EFAFEF7C3
:104610009BFF042808BF00F043F932469DED020BD2
:1046200051EC100BFCF791FACDE902019DED020B64
:1046300051EC180B53EC102BFCF718F8FFF73ABBB2
:104640000000904000000000FE822B654715973C5B
:1046500000CC904000346F3F01FCFFFF0000E03FC2
:10466000A0CB0100FFFF0F0000000000432EE63F3B
:10467000396CA80C615C20BEEF39FAFE422EE63F91
:10468000384502000000000000000000000000406B
:1046900000B52DED048BB0EE409AF0EE609A83B039
:1046A00051EC190BFCF768FA41EC180B18EE100AE4
:1046B00018EE901A8DED008B002818BF01200843DA
:1046C00020F00040C0F17F6000F1E040C00F14D046
:1046D00019EE101A19EE900A8DED009B002918BFF3
:1046E0000121084320F00040C0F17F6000F1E0406C
:1046F000C00F04BF012000F0F3F8B0EE480A03B089
:10470000F0EE680ABDEC048B00BD70B504462DEDDB
:10471000028B4D1E00EBC500B0EE408AF0EE608AC1
:1047200090ED000B35F0060017D053EC182B51EC30
:10473000100BFBF79BFF41EC100B6D1E04EBC5004B
:1047400090ED001B51EC100B53EC112BFBF7E7FE27
:1047500041EC100B35F00600E7D1022D36D0042DC8
:104760001CD0062D1CBFBDEC028B70BD53EC182B6A
:1047700051EC100BFBF77AFF94ED0A1B53EC112B55
:10478000FBF7CDFE53EC182BFBF770FF94ED081BE5
:1047900053EC112BFBF7C3FE41EC100B53EC182B21
:1047A00051EC100BFBF762FF94ED061B53EC112B41
:1047B000FBF7B5FE53EC182BFBF758FF94ED040BF9
:1047C00053EC102BFBF7ABFE41EC100B53EC182B0A
:1047D00051EC100BFBF74AFF94ED021B53EC112B2D
:1047E000FBF79DFE53EC182BFBF740FF94ED001BED
:1047F00053EC112BFBF793FEBDEC028B41EC100B3D
:1048000070BD0000000000009FED070B10B553ECD9
:10481000102B9FED070B51EC100BFBF799FF41ECB0
:10482000100B10BD000000000000000000000000A0
:10483000000000000000F03F10B553EC102B51ECCD
:10484000100BFBF76CFE41EC100B10BD10B553ECD8
:10485000112B51EC100BFBF762FE41EC100B10BD5D
:104860009FED050B10B553EC102B51EC100BFBF723
:104870006FFF41EC100B10BD0000000000000000B5
:104880009FED050B10B553EC102B51EC100BFBF703
:10489000EDFE41EC100B10BD0000000000000070A8
:1048A0009FED050B10B553EC102B51EC100BFBF7E3
:1048B000DDFE41EC100B10BD0000000000000010F8
:1048C00002E008C8121F08C1002AFAD170477047D9
:1048D000002001E001C1121F002AFBD17047000037
:1048E0000149086070470000640200208178491C7B
:1048F00081707047024601E0481EC1B2012903DD04
:10490000481E105C0028F7D0084670472DE9FF4F7D
:104910008DB00F460546002606E025280BD0DDE9C0
:104920000F1290476D1C761C28780028F5D111B025
:104930003046BDE8F08F0024A246A1460122EC4992
:1049400000E0044315F8013F203B02FA03F008425F
:10495000F7D128782A2810D06FF02F022878A0F1FC
:104960003001092914D80AEB8A0102EB410144F015
:10497000020400EB010A6D1CF0E701CF5FEA000AB8
:1049800003D544F40054CAF1000A44F002046D1C3B
:1049900028782E2817D115F8010F44F004042A288E
:1049A0000ED06FF02F022878A0F1300109290AD823
:1049B00009EB890102EB410100EB01096D1CF2E7F3
:1049C00057F8049B6D1C28786C280FD006DC4C2807
:1049D00017D068280DD06A2814D104E0742810D0AC
:1049E0007A280FD10DE044F400140AE044F4801456
:1049F00001E044F440146978814202D104F5801446
:104A00006D1C6D1C2A786E2A1FD00CDC632A31D0F5
:104A100004DC002A8BD0582A11D1A3E0642A68D084
:104A2000692A0CD165E0732A2ED004DC6F2A73D07A
:104A3000702A04D19BE0752A6FD0782A6ED0104678
:104A4000DDE90F129047761C50E1C4F302500228B2
:104A500006D0032809D0042801CF09D0066045E11B
:104A600001CFF117C0E9006140E101CF06803DE1CF
:104A700006703BE117F8040B8DF8000000208DF85C
:104A80000100EB46012003E057F804BB4FF0FF3074
:104A900061074FF0000102D40DE008F101018846E2
:104AA00049450FDA8045F8DB1BF808100029F4D1DE
:104AB00008E008F1010188468142FADB1BF8081082
:104AC0000029F6D1DDE90F23AAEB08008146214633
:104AD00000F036F9304400EB080604E0DDE90F127F
:104AE0001BF8010B9047B8F10108F7D22146484660
:104AF000F7E00A21C4F302534FF0000B0891022B98
:104B000004D001CFC117032B09D00AE0FF1D27F005
:104B10000707F7E8020108E032E01FE020E000B2FA
:104B2000C117042B01D140B2C117031E71F100035C
:104B300007DA4FF0000CD0EB0C006CEB01012D23D9
:104B400002E0230504D52B238DF82430012303E054
:104B5000E30701D02023F7E7984658E00A2110E048
:104B600010210EE010204FF0000B08900CE01021F7
:104B70004FF0000B44F004044FF00809089103E0E3
:104B800008214FF0000B0891C4F30253022B04D00C
:104B900001CF0021032B06D006E0FF1D27F00707F9
:104BA000F7E8020103E080B2042B00D1C0B24FF05D
:104BB000000823072BD5702A07D0DDF820C08CF021
:104BC000100C5CEA0B0C05D00EE040238DF824306D
:104BD000012308E050EA010306D030238DF8243089
:104BE0008DF8252002239846DDF820C08CF0080CB3
:104BF0005CEA0B0C0BD150EA010301D1630706D527
:104C000030238DF824304FF00108A9F10109582A0A
:104C100004D038A20B9208AA0A920BE03AA2F9E754
:104C20005B46089AFBF7C5FB0B9B9B5C0A9A521EDE
:104C30000A92137050EA0102F2D10A98ADEB00001B
:104C400000F1200B600702D524F4803401E04FF01E
:104C50000109D94502DDA9EB0B0000E0002000EBC3
:104C60000B0141440890AAEB010AE00306D4DDE9F8
:104C70000F232146504600F063F806444FF0000928
:104C800008E009A911F80900DDE90F12904709F1C0
:104C90000109761CC145F4DBE0030CD5DDE90F23E7
:104CA0002146504600F04CF8064404E0DDE90F12BE
:104CB00030209047761C0899481E08900029F5DCA2
:104CC00008E00A980A990078491C0A91DDE90F1258
:104CD0009047761CBBF10001ABF1010BF1DC2146E2
:104CE0005046DDE90F2300F019F806446D1C1BE661
:104CF00009280100303132333435363738396162B2
:104D00006364656600000000303132333435363775
:104D10003839414243444546000000002DE9F04146
:104D2000044600251E461746880404D405E039468B
:104D30002020B0476D1C641EF9D52846BDE8F081DF
:104D40002DE9F041044600251E469046C80301D5D2
:104D5000302700E02027880404D505E04146384686
:104D6000B0476D1C641EF9D52846BDE8F0810000EF
:104D70002DE9F0438DB004460D462A48066800F040
:104D80009DFC00684068D0F8189004F12000C847E6
:104D90008046B8F5FA6F01D3012000E000200746F5
:104DA0000FB10020A0770F2D04D0A07F10B90DB057
:104DB000BDE8F083A07F08B907B9F8E7A17F481CD8
:104DC000A077601D4554A07F192829D100200490A8
:104DD00003900290102002A903AB04AACDE90010B1
:104DE00005A9601D1DF076FDB8B1BDF810000528BD
:104DF00013DBBDF81000420005A9B01CFBF73BFB1C
:104E0000BDF8100070700120307000F057FC006891
:104E10004068D0F800902046C8470020A07700BF27
:104E200000BFC4E7880100200A68531C0B601070A3
:104E30007047F0EE400A90ED011AD0ED031A21EE12
:104E4000211AD0ED001A01EEA01AD0ED021A90ED51
:104E5000042A01EE821AD0ED051A31EE211AB0EEC5
:104E6000410A90ED031A80ED041AC0ED030A80EDAB
:104E7000050A704710B541EC100BFEF77DFB51ECB5
:104E8000100B10BD70B504460B2C05D119F0A0FC19
:104E900085680020A8471EE0012C05D119F098FC78
:104EA00085680120A84716E0022C05D119F090FC76
:104EB000456A0120A8470EE0032C05D119F088FCB3
:104EC000456A0220A84706E0042C04D119F080FCB2
:104ED000456A0320A84770BD10B517F0E7FE17F02C
:104EE000EBFE10BD70B504460D46002615200FF0F0
:104EF000E3FE06466079B04208D1B4F80D1029816E
:104F00000F20015BA9811120015B298270BD70B562
:104F100005460C46002613200FF0CEFE06466879A3
:104F2000B04233D1002006E005F10D010A5CE11D1D
:104F30000A54411CC8B20428F6DB697B102901D150
:104F4000217019E0697B202901D1617014E0697B2F
:104F5000042901D1E1700FE0697B082901D1A1701A
:104F60000AE0697B022901D1217105E0002121704D
:104F70006170A170E1702171E97B6171697C012927
:104F800001D1A17101E00021A17100BF70BD70B518
:104F900004460D46E07A042807D0E07A012804D0C0
:104FA000E07A10B1E07A092805D105F170012046B8
:104FB00000F00AF807E0E07A062804D105F19E0126
:104FC000204600F015F870BD70B504460D46E07936
:104FD00004280CD1A079022802D0A079092806D192
:104FE000207B012803D129462046FFF77BFF70BDB7
:104FF00070B504460D46207B502803D12946204633
:10500000FFF785FF70BD02460B7883EA020080EA55
:105010000013D8B20B881B1283EA002383EAC00373
:1050200083EA20130B80704782B0CDE9000121F0A4
:10503000004001909DED000B02B051EC100B704749
:105040002DE9F0412DED0A8B86B000F037FBC069E9
:10505000066819F0BDFB046800F030FB8069076842
:1050600000F02CFBC069D0F80C8000F027FB006931
:1050700040690568A847B0EE40AAF0EE60AA51EC7E
:105080001A0B81F0004141EC190B9FEDFE0B53EC24
:10509000102BFBF7EBFA41EC180BFBF7FAFBFB4983
:1050A000086000F00BFB006980690568A847B0EE56
:1050B000409AF0EE609A9FEDF30B53EC102B51ECFD
:1050C000190BFBF7D3FA41EC180BFBF7E2FBEF49A6
:1050D000486011F04DFE80688569A847B0EE409A9F
:1050E000F0EE609A9FEDE70B53EC102B51EC190B8F
:1050F000FBF7BCFA41EC180BFBF7CBFBE3498860EC
:10510000E348007808B119F01DFB94F8300068B945
:105110000220E04908710020DF4908710021DE48C3
:1051200041718171012084F8300079E294F83000F7
:1051300001285BD1D5480068D8490860D348406849
:105140004860D24880688860D04890ED000AB8EE88
:10515000C00AD34880ED000ACC4890ED010AB8EEB1
:10516000C00ACF4880ED010AC84890ED020AB8EEA7
:10517000C00ACB4880ED020ACA48002101604160A4
:105180008160C948016041608160C8480160416038
:1051900081600020C6490870C649087011F0E8FD1A
:1051A00080688569A847B0EE409AF0EE609A9FED5E
:1051B000B50B53EC102B51EC190BFBF757FA41ECE4
:1051C000180BFBF766FBBC49886011F0D1FD05693F
:1051D000A84738B919F0FCFA406918B119F0F8FA83
:1051E0004569A847022084F8300019E294F830009D
:1051F00002287DD194F8310000280ED094F83100B7
:105200000128FAD094F8310002280FD1A248007882
:10521000012803D16421A04801817DE19E480078E6
:105220000028FAD164219C48018175E194F831008D
:1052300003287CD11AF0AEF8606B90F83300A0B36D
:105240009E490868FBF7F3FA41EC1A0B606B90ED8E
:10525000101BB0EE410AF0EE610A51EC100B81F028
:10526000004141EC1C0B606B90ED121BB0EE410A4B
:10527000F0EE610A53EC102B51EC1C0BFBF7F6F926
:1052800041EC1B0B53EC1A2BFBF7F0F941EC190B1B
:105290009FED8B0B53EC102BFBF75AFA41EC180BDC
:1052A000FBF7F7FA7C4988612FE0FFE7834908683C
:1052B000FBF7BDFA41EC1A0B606B90ED122BB0EED0
:1052C000420AF0EE620A90ED102BB0EE421AF0EEB8
:1052D000621A53EC102B51EC110BFBF7C7F941ECA0
:1052E0001B0B53EC1A2BFBF7C1F941EC190B00E037
:1052F0007AE19FED730B53EC102BFBF729FA41EC8D
:10530000180BFBF7C6FA64498861A06B90F833006C
:10531000B0B36A494868FBF78AFA41EC1A0BA06BF4
:1053200090ED101BB0EE410AF0EE610A00E0F2E0F1
:1053300051EC100B81F0004141EC1C0BA06B90ED87
:10534000121BB0EE410AF0EE610A53EC102B51EC47
:105350001C0BFBF78BF941EC1B0B53EC1A2BFBF7E7
:1053600085F941EC190B9FED560B53EC102BFBF715
:10537000EFF941EC180BFBF78CFA4749C8612DE0B7
:10538000FFE74E494868FBF752FA41EC1A0BA06B55
:1053900090ED122BB0EE420AF0EE620A90ED102B67
:1053A000B0EE421AF0EE621A53EC102B51EC110BD6
:1053B000FBF75CF941EC1B0B53EC1A2BFBF756F98E
:1053C00041EC190B9FED3E0B53EC102BFBF7C0F992
:1053D00041EC180BFBF75DFA2F49C861E06B90F8C0
:1053E0003300A0B335498868FBF721FA41EC1A0B6A
:1053F000E06B90ED101BB0EE410AF0EE610A51EC4B
:10540000100B81F0004141EC1C0BE06B90ED121B86
:10541000B0EE410AF0EE610A53EC102B51EC1C0B7C
:10542000FBF724F941EC1B0B53EC1A2BFBF71EF98D
:1054300041EC190B9FED220B53EC102BFBF788F975
:1054400041EC180BFBF725FA1349086250E0FFE71F
:105450001A498868FBF7EBF941EC1A0BE06B90ED09
:10546000122BB0EE420AF0EE620A90ED102BB0EE75
:10547000421AF0EE621A53EC102B51EC110BFBF7B1
:10548000F5F821E00000000000002440B4020020F4
:105490006D0000206802002084020020C00200206D
:1054A000D0020020E8020020DC020020F4020020EC
:1054B0006C0000206F000020A8020020CC2C020805
:1054C000000000000088C34041EC1B0B53EC1A2B7A
:1054D000FBF7CCF841EC190B1FED070B53EC102B2D
:1054E000FBF736F941EC180BFBF7D3F94F4908628B
:1054F00002204E4908700846806928B90846C069EC
:1055000010B90846006A10B101204949087002200C
:105510004649087000E000BF45480078012860D186
:105520004248806943490968884202DD3F488069F2
:1055300001E0404800683D4988610846C0693D492E
:105540004968884202DD3948C06901E0394840684D
:105550003649C8610846006A36498968884202DDD2
:105560003248006A01E033488068304908620846E2
:10557000806931490968884202DA2C48806901E073
:105580002D480068294988610846C0692A49496848
:10559000884202DA2548C06901E02748406823496B
:1055A000C8610846006A24498968884202DA1F48AF
:1055B000006A01E0204880681C4908620A461832E7
:1055C00007CA02AB07C3194841690069CDE9000168
:1055D00016490878091D0EC9FCF77EFD0020144904
:1055E000087018F08DFA1BE094F83000032812D1EF
:1055F00000F064F80069456BA84711F0B9FB8569B4
:10560000A84711F0B5FB056AA8470020E071042007
:1056100084F8300004E094F83000042800D000BF83
:1056200006B0BDEC0A8BBDE8F081000084020020CA
:105630006C000020740000208000002010B50028BD
:1056400021D0114B0022001F196803E0814203D8CA
:105650000A4649680029F9D152B11368841A9C425C
:1056600004D1006818441060104602E0506000E069
:10567000186039B102680B1A934203D10B681A44BF
:1056800002604968416010BD5C0200200148007959
:10569000704700006802002010B507F0FBFD0649C6
:1056A000086007F035FF0449486007F07DFE0249B5
:1056B0008860084610BD0000B80A00200148006854
:1056C000704700009000002000B585B06846FCF7E8
:1056D0002FFF0120FCF726FF05208DF81000002089
:1056E0008DF811008DF8120001208DF8130004A828
:1056F000FCF76CFE5748FCF73FF95748FCF73CF9BC
:105700005648FCF739F95648FCF736F95548FCF786
:1057100033F95548FCF730F95448FDF77FFA4FF05C
:105720008040FDF77BFA5248FDF778FA5148FDF7C3
:1057300075FA5148FDF772FA5048FDF76FFA504874
:10574000FDF76CFA4F48FDF769FA4F48FDF766FA26
:105750004E48FDF763FA4E48FDF760FA4D48FDF7F5
:105760005DFA4D48FDF75AFA4C48FDF757FA4C4898
:10577000FCF7D2FF4B48FCF7CFFF4B48FDF798FDF5
:105780004A48FDF795FD4A48FDF792FD4948FDF767
:105790008FFD4948FDF78CFD4848FDF789FD4848D5
:1057A000FBF76AFB4748FBF767FBFBF797FA4648AE
:1057B000FBF7ECFE44481830FBF7E8FE4248303077
:1057C000FBF7E4FE40484830FBF7E0FE3E4860301F
:1057D000FBF7DCFE3C487830FBF7D8FE3A489030C7
:1057E000FBF7D4FE3848A830FBF7D0FE3748FBF76C
:1057F000CDFE36481830FBF7C9FE34483030FBF791
:10580000C5FE32484830FBF7C1FE30486030FBF738
:10581000BDFE2E487830FBF7B9FE2C489030FBF7E0
:10582000B5FE2A48A830FBF7B1FEFCF74FF801217E
:105830008803FCF751FE012140F2FF10FCF70CFE3B
:1058400001214805FCF708FE01218805FCF704FE4C
:1058500005B000BD00000240000402400008024004
:10586000000C024000100240001402400000014001
:105870000004004000080040000C00400010004000
:105880000014004000040140004001400044014079
:105890000048014000180040001C0040002000406B
:1058A000003001400038004000100140004400403A
:1058B00000480040004C00400050004000140140EF
:1058C0000064004000680040106002401064024024
:1058D0007047000001480068007A7047940000207B
:1058E0000148006800687047940000200148006883
:1058F000C06870479400002002480168D1E90601A1
:10590000704700009400002001213420FAF7F9FDCF
:105910002049086001212020FAF7F3FD1E490860A4
:105920001C480468084605681C48A0621C48E062E0
:105930001C482063FFF7B0FE2060206840680168C3
:10594000281D8847FFF7C0FE01F012FC60600EF0D2
:10595000DDFFE060FFF7BCFF0EF09EFAA0610DF0E6
:10596000EBFA206105F042F9E0612068006801214E
:1059700082680820904760620B48616A08600B48A3
:10598000616A486003F0C0FC606108F0EBFF2062D0
:1059900000F00EF89000002094000020E15800086C
:1059A000ED580008F9580008655A0008D558000855
:1059B000FFF784FE00688668FFF780FE0068456890
:1059C000FFF77CFE00680768FFF778FEC068D0F834
:1059D000108017480468386880478146201D696830
:1059E00088470A302060A86A8047D4E906238018D7
:1059F00043F10001C4E9060104F110002968884759
:105A0000318823684A460BA0D8F810C0E0470EE062
:105A100004F11000A9698847E060D4E90631E06824
:105A2000181841F10001C4E90601B0688047EFE7AA
:105A3000940000205441534B204E554D3A2025648C
:105A40002C20484541502053495A453A203078256A
:105A5000782C2054494D4520494E49543A2025641C
:105A6000206D730001490968087270479400002096
:105A70002DE9F0472DED088BB0EE408AF0EE608AFC
:105A800004460D4651EC180BFAF703FF0FFA80F8A5
:105A90000027B8F1000F02DA2D20207001274046C0
:105AA000FAF7C5FE41EC1A0B53EC182BFAF7DBFDA5
:105AB00041EC190BE1190322404600F07BFF06463A
:105AC00045B32E20B91960542846FAF7C1FE41ECBF
:105AD0001B0BB0EE4B1AF0EE6B1A9FED100BFDF79F
